:100000000C9413290C9444290C9444290C944429ED
:100010000C9444290C9444290C9444290D94A23541
:100020000C9444290C9444290C9444290C9444299C
:100030000C9444290C9444290C9444290D94C747EA
:100040000C9444290C9444290C9444290C9444297C
:100050000C9444290C9444290C9444290C9444296C
:100060000C9444290D944C360D947B360C94442901
:100070000C9444290C9444290C9444290C9444294C
:100080000C9444290C9444290C9444290C9444293C
:100090000D94B6360D94E5360C9444290D94623ACD
:1000A0000C9444290D94F4470C9444290C9444294D
:1000B0000C9444290C9444290D9421480C9444290F
:1000C0000C9444290C9444290D947F400D942037BE
:1000D0000D944F370C9444290C9444290C944429D2
:1000E0000C944429FB4E474F504F1D4F364F594FEC
:1000F000E84FA04F974F844FA94FBE4FD14F624F4B
:10010000714FF44E0250F14F1B502350F44E2B50C0
:10011000F44E3D50F44E1350E75BC15C5F5DF05B05
:100120001A5C135C735C055CF55C215CF55C7A5CC5
:10013000F55C5F5D805CA25CB85C3E624F625862B9
:1001400063621665AE6216650C6312631B63166507
:1001500055622663166538634263DA641665166570
:10016000166516651665E364EA64F164FA640A6567
:100170006969566CB56982699369C669F969566C93
:10018000566C996A566C3D6A566CE869566C566CAA
:10019000CC6AE56AFE6A566CA4694E6A806A566C3F
:1001A000AA6AD769566C676A566C176B286B566CCF
:1001B000566C0A6A1B6A2C6A566C396B696BBB6A8F
:1001C000826B566C566C566C936B9E6BAF6BC06BB0
:1001D000D16BE26BF36B4E7A3D7AAE7A6A7B667DC9
:1001E000577D777F7A7C3884207E38847A7F388484
:1001F000917FA17F9F80A881777B807B9A7B777F8F
:10020000807B467C497C44062C058C068A06AA061F
:10021000A203F4050A05D8062E05D202DE04200347
:10022000E004B602FC05D8034A059A06780674066F
:100230005805D6052A04E6066C05C002AA04F40493
:100240009405A8035C046C036203DA050E039E06A2
:10025000C6051E06A207CE072E032C07320572061E
:10026000DC07C607F604F6046E056E056E05680623
:1002700068066806D8053406340688057403BE028D
:10028000BC064C032A061006D603D004F605120657
:100290008806CA03040592041E07A804C4023A048F
:1002A0000E044006BA0288049E07F202CE047E05C0
:1002B000F6063A06E4063A05A6057C04FC0322038A
:1002C000CA06C405340776038207EC05AE05C003F1
:1002D000DE0618067C03C00736056A058E03FA039E
:1002E00038040004AE040606AC047E07F007D0060E
:1002F0001E03F6021C042A07B203F003D402C20450
:10030000E404B6051A07E4033C0708043006960720
:100310007E06440486065A07EA056A03B4046E069C
:100320006E06DA066E066E06DA06DA063E053E064A
:100330003E053E063E053E063E05EE05EE05EE0593
:10034000EE05EE05EE05EE05EE05EE0578073E0539
:100350003E063E053E063E053E063E053E063E0581
:1003600078073E05EE05EE053E063E05EE053E0627
:100370003E053E063E0578071803980718039807C0
:100380001803980718039807180398070A040A0423
:100390000A04A406A4060A040A040A04A406A4067D
:1003A000800680068006500650068006800680067D
:1003B000500650068203E4058203E4058203E40547
:1003C0008203E4058203D407B604640752075A0384
:1003D000520752074C05C805520752078A031607F1
:1003E0009E045207520752075207520752075207FC
:1003F00052075207520752072E045207520752075C
:100400005207520752075207D00710075207EE0251
:10041000EE0652072E07AA05520752075207520747
:10042000D405F00570067407F2062804F0067A0772
:10043000F006F006F0062204B005B2026A046A046F
:100440009C065C076606D4066C0624049A048A049B
:10045000A007A007B407E006E006E006E006E00615
:10046000E006A007E006E006E006E006B407B407F1
:10047000B407B407B407B407E006E006A007A00776
:10048000B407036EDB363D9A9999993DABAAAA2A27
:100490003E000000803F084AD73B3BCE016E84BC43
:1004A000BFFDC12F3D6C74319ABD56833DDA3D00CE
:1004B000C77F11BED9E4BB4C3E916BAAAABE000017
:1004C00000803F072C7AA5BA6CC590DA3B9365FC97
:1004D0008BBC53F810FD3C5692834DBD879D3AB6B8
:1004E0003DCBC9BF5BBE73DA0FC93F05A84CCDB287
:1004F000D44EB93836A9020C50B9918688083CA66A
:10050000AAAA2ABE000000803F08000000BE922474
:1005100049123EABAAAA2ABECDCCCC4C3E0000006C
:1005200080BEABAAAAAA3E00000000BF0000008067
:100530003F0000000000084178D3BB4387D1133D42
:10054000190E3CC3BD4282AD2B3E68EC8276BED90B
:100550008FE1A93E4C80EFFFBE01C4FF7F3F00004A
:10056000000000000D949ECB0D94309E0D94EE2162
:100570000D9429630D94BA3D0D94F1840D94603D62
:100580000D9489220D94A2380D94AC3D0D944345F1
:100590000D94042A0D942C120D9411AA0D94462C3E
:1005A0000D9484140D946D1B0D94F0780D94F293BA
:1005B0000D9420920D947CC50D9497DF0D94956257
:1005C0000D94025D0D94EAA30D94B91B0D940C4596
:1005D0000D9403670D94866E0D944D2A0D9483BD82
:1005E0000D9452300D94E33D0D942A4A0D945C789D
:1005F0000D9446340D943F440D9477BB0D94D73938
:100600000D94B6220D94E5CE0D94B7410D94A82A11
:100610000D94E0B80D9488350D945E2A0D94A826AB
:100620000D94E7B10D94802A0D94AABA0D9438A0C8
:100630000D948E9D0D94273C0D942A410D944E7877
:100640000D949E1B0D943E3E0D945AA30D947A3446
:100650000D94EC250D940DC20D94B8410D94A52771
:100660000D94A4120D94A10C0D944B6A0D94D235E7
:100670000D94006A0D945BA50D942F3E0D9469486E
:100680000D9416020D94CF350D94BCB10D94DD354B
:100690000D944BD30D94D5590D94683D0D94C444DD
:1006A0000D9494480D94D7220D940E020D9480075A
:1006B0000D94B5000D949CBD0D943F5A0D94D048F7
:1006C0000D9442DA0D9473260D94ED450D942E8C05
:1006D0000D945AB40D94407A0D9463260D94F78BC3
:1006E0000D948CAB0D9411C10D945A3D0D94523E56
:1006F0000D942FCE0D94A7450D94FD760D945FCAF1
:100700000D9452200D94E59D0D94DB440D94143A04
:100710000D94D8340D94C9BD0D9442380D945F7773
:100720000D9483090D947D480D9453340D947BD81A
:100730000D946BBA0D9472540D94E2430D94A1473D
:100740000D9471BB0D946D1A0D94FD420D949E3B5A
:100750000D9448260D94DD760D9464310D948CCA69
:100760000D94D1390D94AE780D9433AB0D94B7AB95
:100770000D9446450D945CD20D94B5440D94E74517
:100780000D94613E0D9464BF0D9475850D9454DFF6
:100790000D94222A0D94943D0D9425A90D946E3844
:1007A0000D94BE3F0D94D0350D940D450D94763DBE
:1007B0000D94F5210D941A3B0D94AF000D94B98E54
:1007C0000D9457A10D94D6000D9459790D94F028ED
:1007D0000D941A3A0D9464600D94893F0D94B9C438
:1007E0000D94C0780D94A6CE0D9430C80D94353478
:1007F0000D94A3A00D9469770D94393E0D944B434D
:100800000D9494770D94862A0D94D07C0D9433C565
:100810000D947D790D94A69D0D9471310D94BF3D7D
:100820000D948EDD0D94B31B0D94E8430D94663B3F
:100830000D9418AC0D943DB80D947C780D94933EB6
:100840000D9411A90D9496CB0D94EBD80D94FBC289
:100850000D948ECB0D9472220D94516F0D940CBE9D
:100860000D94001A0D948B3B0D9464DF0D9489D781
:100870000D948E770D94B03D0D943F900D94BC88EF
:100880000D947D8E0D946B410D94E1790D94D54CB2
:100890000D9418A90D942D3C0D94A5440D9407BBFF
:1008A0000D9406450D94E5AA0D94302A0D942C3F25
:1008B0000D94EB3E0D9454480D9458260D945148D8
:1008C0000D9466480D94FC3E0D943CB50D9437B8DC
:1008D0000D94BE110D9498D80D9480960D94B67B0E
:1008E0000D94EDB10D9465350D9482330D94FBC3D9
:1008F0000D94F5BA0D9413BF0D94063E0D944D342E
:100900000D94BC0C0D944E480D9408450D94703E0A
:100910000D94D93D0D9443D90D943F610D94314010
:100920000D94524D0D949E3D0D948F3F0D945FC6D6
:100930000D94C6AA0D9406D90D945B610D94F1BD7A
:100940000D9439440D94070A0D94873F0D940C358E
:100950000D94A83D0D9499220D94D7770D94B577F9
:100960000D949A410D94F43E0D945F7A0D94CBBC96
:100970000D9436440D94923E0D948F3A0D9444DEBE
:100980000D94E6B30D9407790D944D380D94ADB9DF
:100990000D94680F0D945C130D9481090D94E83D3E
:1009A0000D94853D0D94378D0D94BB6D0D948D3256
:1009B0000D94B8680D9465410D94F03E0D94851B1F
:1009C0000D94AA1B0D9404CA0D9439790D9449CB4A
:1009D0000D94BB600D94769F0D9443870D94120186
:1009E0000D94BE310D941E020D94A3220D942C3D46
:1009F0000D946D390D9454B10D94F2140D948DC471
:100A00000D9409880D94C9620D949A3D0D94A99096
:100A10000D940DBF0D94511B0D947C600D94AC8C06
:100A20000D9442050D9497DC0D9407C80D94398FF1
:100A30000D94F2190D9476490D94C1BF0D941E3595
:100A40000D94472A0D9484380D9453860D943735B0
:100A50000D94EA300D94C0A20D943B1A0D94601BC6
:100A60000D944ED00D94CF270D94BBBF0D942F77CE
:100A70000D9485330D940A3E0D9440520D94289C9C
:100A80000D949A200D94BEC90D946F6C0D94197637
:100A90000D94D6B40D94F9210D94F3BC0D94EA464F
:100AA0000D944D020D94208D0D94CECD0D94DE1934
:100AB0000D944C220D94AB3B0D941D3B0D9477345B
:100AC0000D94052A0D94C11B0D94FAB50D94CCAA72
:100AD0000D947E330D943E770D9485220D94313D17
:100AE0000D9416100D94C1420D948B090D94763E11
:100AF0000D9486880D947BCC0D94A2A10D94ED3DB0
:100B00000D94B65D0D948D4B0D947E8E0D94126CEC
:100B10000D94563D0D942BA90D94C71B0D94DAA688
:100B20000D94584D0D9499C30D944F260D949A65CC
:100B30000D9432440D9449380D9481C10D94F3D530
:100B40000D94D8880D94359F0D94863D0D94013EEB
:100B50000D9412DE0D940BBD0D94D8170D946B3EC1
:100B60000D949ACB0D94EA190D9433450D943F7969
:100B70000D94F8DE0D94C5310D9488DF0D94DB35AE
:100B80000D944A4B0D9459660D94483E0D94D6260B
:100B90000D941CBD0D94A0960D942E440D94E075FB
:100BA0000D94C6370D9427390D94D6BD0D94772238
:100BB0000D94493D0D9488260D946BB30D9419BC8A
:100BC0000D941E870D94431D0D94E79D0D9466387A
:100BD0000D945A110D94257A0D945C3E0D94999CB8
:100BE0000D946ACB0D947B340D94751A0D947C3D55
:100BF0000D94E00A0D947C8E0D94E9210D94B022A1
:100C00000D945AD60D9477420D94A5BE0D94C377DA
:100C10000D94F1340D945E600D94ED160D94FAB2BE
:100C20000D94723D0D94803D0D9446380D94E688E8
:100C30000D94E9760D9485090D94E4460D9493275F
:100C40000D94EF620D94DF720D9418800D94776D02
:100C50000D949FBE0D946E3D0D94D5350D94CBDA59
:100C60000D948D790D947CAC0D943B3D0D94D8354D
:100C70000D94C8710D94F73D0D94682A0D94DA9B7C
:100C80000D94B63D0D9471B30D94351A0D94A16A6F
:100C90000D940FA10D9462C40D94DB410D949CDE64
:100CA0000D94C89D0D945FB70D94C1310D941345FB
:100CB0000D94D1350D9407210D946A3F0D94E625CE
:100CC0000D9439400D94E1440D946C3B0D94BFD8C4
:100CD0000D94363D0D94A5AB0D94D8D80D94F89A8B
:100CE0000D9482CB0D94E6270D9443220D945A88DF
:100CF0000D941F220D94D0B40D94AAC00D94C37905
:100D00000D94C69D0D9473390D94C1C70D94FC7953
:100D10000D94903D0D94491A0D94421A0D94A548D6
:100D20000D9464CF0D94ED420D94173B0D946BA27E
:100D30000D9437530D9404220D94A8D80D94CB260E
:100D40000D94DDD40D942E280D94A89D0D94564835
:100D50000D9424020D94571A0D9461000D941FA94F
:100D60000D949A930D948EC90D947F8F0D941888CD
:100D70000D947B660D9409670D94643D0D94459E1A
:100D80000D94362A0D9474380D94DA0A0D94788EE9
:100D90000D94993E0D94433E0D94F33B0D94DAB8B7
:100DA0000D941E780D9455610D94D0D80D944C3D42
:100DB0000D944A1B0D94019B0D947A100D94663E80
:100DC0000D94ADDD0D940D210D94FC3D0D9480220C
:100DD0000D9458A60D9494D10D9433A90D942DBD66
:100DE0000D94B3CB0D948ACB0D9440A70D94F23D96
:100DF0000D9457760D944B450D949B340D94082A11
:100E00000D94491D0D94E0880D946E450D9465B7C1
:100E10000D9434430D94BC3F0D9489450D94CA2A1A
:100E20000D9443BD0D9444A20D9417AA0D942ABEAF
:100E30000D944A360D9445790D94D5E40D94A23D58
:100E40000D94A2390D94FA190D94E63C0D94BE420E
:100E50000D94A2340D948E780D94B9270D94E6BCB0
:100E60000D94533F0D94F4000D944D3E0D94F3B743
:100E70000D94113E0D949C390D946F790D944B3562
:100E80000D94FF300D9440DC0D946BAE0D94F73E45
:100E90000D94D6350D94C20C0D94632A0D94BA347A
:100EA0000D9426400D9449BE0D94DC000D944E28FF
:100EB0000D940B410D940B7A0D94C8D80D94223DDE
:100EC0000D94C03D0D9493020D945EBD0D94FD8B69
:100ED0000D94F4B50D9457B20D94A7B90D9436A89E
:100EE0000D9498610D94247B0D9486CB0D94989E5F
:100EF0000D942A9C0D9492CB0D9478B00D94E277CA
:100F00000D944A610D94573E0D9497940D94B545F8
:100F10000D940ECF0D94AF570D94EA3E0D94077DBE
:100F20000D9457450D948DC00D94ABA30D94A479E9
:100F30000D94939D0D9440280D9449720D94DE3DBF
:100F40000D94A4DD0D948C270D9405010D94789ECD
:100F50000D94F8A60D94ACB10D94D01D0D94210400
:100F60000D9488580D9410880D94AADD0D94099362
:100F70000D94DE3A0D94B3B60D94AF210D94633801
:100F80000D9403770D947B090D94A7DF0D94102821
:100F90000D94B5210D9461B30D94B1AB0D949B27C5
:100FA0000D94BFBC0D9451B20D94E99D0D94088F22
:100FB0000D94D5A40D94E1410D9404280D94103F97
:100FC0000D94E4190D9475DF0D9495AC0D942206E3
:100FD0000D948A740D94F9B90D9462750D942A7369
:100FE0000D9407780D940B3E0D945E485265616335
:100FF00068656420436F6D6D616E64202325690010
:101000005265616368656420436F6D6D616E642035
:101010002325690044434D20626164206865616452
:10102000696E670043726173683A20446973617244
:101030006D696E67004175746F54756E653A204630
:1010400061696C6564004175746F54756E653A2012
:1010500053756363657373004175746F54756E6582
:101060003A2053746F70706564004175746F5475E5
:101070006E653A2053746172746564004D6F746FCD
:101080007220546573743A205361666574792053F5
:101090007769746368004D6F746F72205465737460
:1010A0003A2076656869636C65206E6F74206C61A8
:1010B0006E646564004D6F746F7220546573743A8A
:1010C000205243206E6F742063616C696272617498
:1010D00065640061626C65640A0064697300656E32
:1010E000000A436F6D4D6F7425643A2025342E320B
:1010F000662C2025342E32662C2025342E32660AAA
:101100000043757272656E74005468726F74746C0B
:1011100065004F66660A004D6F746F7220436F6DF5
:10112000703A20004D61672564206F66663A20257D
:10113000342E34662C2025342E34662C2025342E73
:1011400034660A004D6167204465633A2025342ED9
:1011500034660A00436F6D706173730A00466169FB
:101160006C6564210043616C6962726174696F6EC1
:10117000205375636365737366756C210054485220
:101180004F54544C450043555252454E540053540D
:10119000415254494E472043414C494252415449DF
:1011A0004F4E004E6F74206C616E6465640074680D
:1011B00072206E6F74207A65726F005243206E6FDA
:1011C000742063616C696272617465640063686550
:1011D000636B20636F6D7061737300636F6D70611B
:1011E00073732064697361626C65640A004672619E
:1011F0006D653A20515541440041726475436F70EA
:101200007465722056332E322E3100434F4D5041BB
:10121000535320494E4954204552524F5200455392
:10122000432063616C20696E7075743A20257520C7
:10123000257520257520257520206F7574707574AF
:101240003A2025752025752025752025750A00452D
:1012500053432043616C3A2070617373696E672059
:101260007468726F74746C65207468726F756768E7
:1012700020746F20455343732E0A00456E746572C7
:10128000696E67204553432043616C3A2072657351
:10129000746172742041504D2E0A004C6F672065B6
:1012A0007261736520636F6D706C6574650A0045CB
:1012B000726173696E67206C6F67730A006C6F618F
:1012C000645F616C6C20746F6F6B20256C75757337
:1012D0000A00646F6E652E004669726D77617265F3
:1012E000206368616E67653A2065726173696E6735
:1012F00020454550524F4D2E2E2E0A00426164204B
:10130000766172207461626C65004261642076616E
:1013100072207461626C650A002D00465720566584
:10132000723A2025640A00496E697469616C6973B8
:10133000696E672041504D2E2E2E000A5265616461
:101340007920746F20464C59200045524153494E34
:1013500047204C4F4753004E6F2064617461666CA8
:1013600061736820696E736572746564000A0A4966
:101370006E69742041726475436F70746572205693
:10138000332E322E310A0A467265652052414D3A9B
:101390002025750A004C6F73742047505321004C70
:1013A0006F77204261747465727921005472696D9F
:1013B000207361766564006261726F6D6574657239
:1013C0002063616C6962726174696F6E20636F6D16
:1013D000706C6574650043616C6962726174696EFA
:1013E00067206261726F6D657465720047524F5578
:1013F0004E442053544152540041726D3A20477973
:10140000726F2063616C206661696C656400417273
:101410006D3A205361666574792053776974636807
:101420000041726D3A204C65616E696E67004172D1
:101430006D3A205468722062656C6F7720465300C5
:1014400041726D3A20416C742064697370617269F5
:1014500074790041726D3A204D6F6465206E6F742F
:101460002061726D61626C650050726541726D3A07
:101470002048696768204750532048444F50005027
:10148000726541726D3A204261642056656C6F63EB
:101490006974790050726541726D3A204E656564D9
:1014A000203344204669780050726541726D3A20BD
:1014B00047505320476C69746368005072654172ED
:1014C0006D3A204143524F5F42414C5F524F4C4C6A
:1014D0002F50495443480050726541726D3A204381
:1014E0006865636B20414E474C455F4D4158005045
:1014F000726541726D3A20436865636B2046535FA5
:101500005448525F56414C55450050726541726DCA
:101510003A2043683726436838204F70742063614F
:101520006E6E6F742062652073616D650050726528
:1015300041726D3A20436865636B20426F6172644B
:1015400020566F6C746167650050726541726D3A28
:10155000204779726F2063616C206661696C6564F5
:101560000050726541726D3A204779726F73206E38
:101570006F74206865616C7468790050726541729F
:101580006D3A20416363656C73206E6F74206865EB
:10159000616C7468790050726541726D3A20494EF1
:1015A00053206E6F742063616C696272617465644C
:1015B0000050726541726D3A20636865636B206606
:1015C000656E63650050726541726D3A20436865CF
:1015D000636B206D6167206669656C64005072659D
:1015E00041726D3A20436F6D70617373206F666650
:1015F0007365747320746F6F206869676800507238
:101600006541726D3A20436F6D70617373206E6F28
:10161000742063616C696272617465640050726504
:1016200041726D3A20436F6D70617373206E6F74F9
:10163000206865616C7468790050726541726D3A1A
:1016400020416C7420646973706172697479005010
:10165000726541726D3A204261726F206E6F742024
:101660006865616C7468790050726541726D3A20EA
:101670005243206E6F742063616C6962726174659D
:1016800064004672616D653A2051554144004172D3
:101690006475436F707465722056332E322E31009C
:1016A000504552463A2025752F257520256C750A20
:1016B000008D000100424154545F4D4F4E49544F3C
:1016C000520000000000A8000100424154545F563F
:1016D0004F4C545F50494E00000000A900010042E9
:1016E0004154545F435552525F50494E0000000030
:1016F0008E000400424154545F564F4C545F4D5588
:101700004C540000008F000400424154545F414D8E
:10171000505F504552564F4C5400910003004241D7
:1017200054545F4341504143495459000000001450
:101730000002004C4F475F4249544D41534B00005B
:10174000000000008059464D54000042426E4E5A3F
:101750000000000000000000000000547970652CBB
:101760004C656E6774682C4E616D652C466F726DAA
:1017700061742C436F6C756D6E7300000000000087
:101780000000000000000000000000000000000059
:1017900000000000000000000000008117504152CE
:1017A0004D004E6600000000000000000000000038
:1017B00000004E616D652C56616C7565000000007F
:1017C0000000000000000000000000000000000019
:1017D0000000000000000000000000000000000009
:1017E00000000000000000000000000000000000F9
:1017F0000000822D475053000042494842634C4C40
:101800006565456566490000005374617475732C05
:1018100054696D654D532C5765656B2C4E5361743F
:10182000732C48446F702C4C61742C4C6E672C5296
:10183000656C416C742C416C742C5370642C474360
:1018400072732C565A2C540000831F494D550000CA
:1018500049666666666666000000000000000000DB
:1018600054696D654D532C477972582C47797259DC
:101870002C4779725A2C416363582C416363592C6D
:101880004163635A000000000000000000000000F7
:101890000000000000000000000000000000000048
:1018A00084434D534700005A000000000000000030
:1018B000000000000000004D657373616765000063
:1018C0000000000000000000000000000000000018
:1018D0000000000000000000000000000000000008
:1018E00000000000000000000000000000000000F8
:1018F0000000000000000085235243494E00496863
:1019000068686868686868686868686868005469D2
:101910006D654D532C43312C43322C43332C4334CF
:101920002C43352C43362C43372C43382C43392C4D
:101930004331302C4331312C4331322C4331332C61
:101940004331340000000000000000000000861752
:1019500052434F55004968686868686868680000C5
:10196000000000000054696D654D532C4368616EA2
:10197000312C4368616E322C4368616E332C4368AE
:10198000616E342C4368616E352C4368616E362C71
:101990004368616E372C4368616E380000000000B8
:1019A000000000000088154241524F0049666663FE
:1019B00066000000000000000000000054696D6532
:1019C0004D532C416C742C50726573732C54656D9F
:1019D000702C435274000000000000000000000062
:1019E00000000000000000000000000000000000F7
:1019F000000000000000000000000000890D504FB2
:101A00005752004943434800000000000000000016
:101A100000000054696D654D532C5663632C56537A
:101A20006572766F2C466C616773000000000000E1
:101A300000000000000000000000000000000000A6
:101A40000000000000000000000000000000000096
:101A50000000009129434D4400004948484866660B
:101A60006666666666000000000054696D654D5349
:101A70002C43546F742C434E756D2C4349642C5089
:101A8000726D312C50726D322C50726D332C50723D
:101A90006D342C4C61742C4C6E672C416C740000BE
:101AA00000000000000000000000921052414400BD
:101AB0000049424242424248480000000000000003
:101AC0000054696D654D532C525353492C52656D2A
:101AD000525353492C54784275662C4E6F69736586
:101AE0002C52656D4E6F6973652C52784572726F1A
:101AF00072732C46697865640000000000000000E5
:101B000000941F43414D000049484C4C6565636398
:101B1000430000000000000047505354696D652CDD
:101B20004750535765656B2C4C61742C4C6E672C79
:101B3000416C742C52656C416C742C526F6C6C2C23
:101B400050697463682C5961770000000000000040
:101B5000000000000000000019194154554E0042D9
:101B600042666666666600000000000000000041F4
:101B70007869732C54756E65537465702C5261745A
:101B8000654D696E2C526174654D61782C525047D9
:101B900061696E2C52444761696E2C5350476169EC
:101BA0006E00000000000000000000000000001AAD
:101BB0000941544445006366000000000000000035
:101BC000000000000000416E676C652C5261746576
:101BD0000000000000000000000000000000000005
:101BE00000000000000000000000000000000000F5
:101BF00000000000000000000000000000000000E5
:101C0000000000000000091743555252004968497E
:101C10006868686600000000000000000054696DFC
:101C2000654D532C5468724F75742C546872496E0C
:101C3000742C566F6C742C437572722C5663632C23
:101C400043757272546F74000000000000000000C1
:101C5000000000000000000000000000000C144F15
:101C6000460000006868426363656500000000008C
:101C70000000000044782C44792C535175616C2C81
:101C8000582C592C526F6C6C2C506974636800008E
:101C90000000000000000000000000000000000044
:101CA0000000000000000000000000000000000034
:101CB00000000000052F4E54554E004966666666CA
:101CC000666666666666000000000054696D654DD4
:101CD000532C44506F73582C44506F73592C506FD1
:101CE00073582C506F73592C4456656C582C4456BD
:101CF000656C592C56656C582C56656C592C4441B2
:101D00006363582C444163635900000421435455D4
:101D10004E0049686868666665636368680000002D
:101D2000000054696D654D532C546872496E2C4106
:101D30006E674273742C5468724F75742C44416CF6
:101D4000742C416C742C426172416C742C4453416C
:101D50006C742C53416C742C444352742C43527455
:101D600000000F194D4147000049686868686868BD
:101D700068686800000000000054696D654D532CD0
:101D80004D6167582C4D6167592C4D61675A2C4F36
:101D90006673582C4F6673592C4F66735A2C4D4FEF
:101DA0006673582C4D4F6673592C4D4F66735A000D
:101DB0000000000000000000000611504D0000006F
:101DC0004848496842484200000000000000000006
:101DD0004E4C6F6E2C4E4C6F6F702C4D6178542CA6
:101DE000504D542C4932434572722C494E53457222
:101DF000722C494E415645727200000000000000EE
:101E000000000000000000000000000000000000D2
:101E100001174154540000496363636343434343E0
:101E20000000000000000054696D654D532C4465AE
:101E300073526F6C6C2C526F6C6C2C4465735069D0
:101E40007463682C50697463682C446573596177B6
:101E50002C5961772C45727252502C45727259611F
:101E60007700000000000003064D4F4445004D6818
:101E700000000000000000000000000000004D6FA6
:101E800064652C5468724372730000000000000007
:101E90000000000000000000000000000000000042
:101EA0000000000000000000000000000000000032
:101EB00000000000000000000000000000000A0315
:101EC00053545254000000000000000000000000C5
:101ED0000000000000000000000000000000000002
:101EE00000000000000000000000000000000000F2
:101EF00000000000000000000000000000000000E2
:101F000000000000000000000000000000000000D1
:101F100000000000000D04455600000042000000D3
:101F20000000000000000000000000004964000004
:101F300000000000000000000000000000000000A1
:101F40000000000000000000000000000000000091
:101F50000000000000000000000000000000000081
:101F600000000000000000000000000014064431E2
:101F70003600004268000000000000000000000081
:101F800000000049642C56616C756500000000007B
:101F90000000000000000000000000000000000041
:101FA0000000000000000000000000000000000031
:101FB0000000000000000000000000000000000021
:101FC000000000150644553136004248000000006C
:101FD0000000000000000000000049642C56616C05
:101FE0007565000000000000000000000000000017
:101FF00000000000000000000000000000000000E1
:1020000000000000000000000000000000000000D0
:1020100000000000000000000000160844333200F9
:102020000042690000000000000000000000000005
:102030000049642C56616C756500000000000000CA
:102040000000000000000000000000000000000090
:102050000000000000000000000000000000000080
:102060000000000000000000000000000000000070
:1020700000170844553332004249000000000000B8
:10208000000000000000000049642C56616C75657A
:102090000000000000000000000000000000000040
:1020A0000000000000000000000000000000000030
:1020B0000000000000000000000000000000000020
:1020C0000000000000000000180844464C54004284
:1020D0006600000000000000000000000000004951
:1020E000642C56616C756500000000000000000063
:1020F00000000000000000000000000000000000E0
:1021000000000000000000000000000000000000CF
:1021100000000000000000000000000000000013AC
:10212000054552520000424200000000000000003D
:102130000000000000005375627379732C45436FF3
:1021400064650000000000000000000000000000C6
:10215000000000000000000000000000000000007F
:10216000000000000000000000000000000000006F
:102170000000000000001562010064000248020037
:10218000C201F566020084030A660A00D0021A65DD
:102190000A00320033910A000A0047300A008C001E
:1021A0009F420A00E803838F040020032A370100BE
:1021B0003200E96821005A00EF2D0200A4014729EE
:1021C0000200FA00EA2D02006400444D6400A401FC
:1021D000F35E0A0014005B4A0A001400592D020045
:1021E0002602552D64009600512D0200D002B351F5
:1021F0000200B603302D0200C201F33C0A002C019C
:10220000DD3C0200DC006C6CE803C8006F350A009E
:1022100032000253595349445F53575F4D5245565C
:102220000000000000A312000000000153595349B0
:10223000445F53575F545950450000000001A512F8
:10224000000020410253595349445F544849534DBB
:1022500041560000000070A6120000803F02535952
:102260005349445F4D59474353000000000000713B
:10227000A81200007F430253455249414C305F424F
:10228000415544000000000031AA120000E642025D
:1022900053455249414C315F4241554400000000D2
:1022A0000032AC12000064420154454C454D5F447D
:1022B000454C415900000000000073AE12000000C0
:1022C000000252544C5F414C5400000000000000DA
:1022D000000000A0AF120080BB4404524E47464E9F
:1022E000445F4741494E0000000000001EB112CD7E
:1022F000CC4C3F0146535F424154545F454E4142EE
:102300004C45000000C1B512000000000446535FB8
:10231000424154545F564F4C54414745000097B6D4
:1023200012000028410446535F424154545F4D411E
:102330004800000000000025BA120000000001461D
:10234000535F4750535F454E41424C4500000000EB
:10235000C3BE120000803F0146535F4743535F45B1
:102360004E41424C4500000000C6BF120000803FB5
:10237000024750535F48444F505F474F4F4400005F
:10238000000023C01200006643014D41475F454EE7
:1023900041424C450000000000000092C2120000C3
:1023A000803F01464C4F575F454E41424C4500002F
:1023B0000000000096C31200000000015355504574
:1023C000525F53494D504C4500000000009BC41221
:1023D000000000000252544C5F414C545F46494E8D
:1023E000414C00000000A3C5120000000001525340
:1023F00053495F50494E00000000000000000018E3
:10240000C712000080BF04525353495F52414E47E8
:10241000450000000000000027C8120000A0400195
:1024200057505F5941575F4245484156494F520006
:10243000001ACC12000000400352544C5F4C4F492C
:10244000545F54494D4500000000A2D21200409C48
:1024500045024C414E445F53504545440000000046
:10246000000000D9D612000048420250494C4F5497
:102470005F56454C5A5F4D41580000001CD8120071
:10248000007A430250494C4F545F414343454C5FEF
:102490005A0000000030DA1200007A430254485219
:1024A0005F4D494E00000000000000000000B4DC59
:1024B0001200000243025448525F4D415800000090
:1024C00000000000000000B5DE1200007A44014662
:1024D000535F5448525F454E41424C450000000056
:1024E000B6E012000000000246535F5448525F56A7
:1024F000414C55450000000000B8E11200C0734493
:10250000025452494D5F5448524F54544C450000B8
:102510000000B9E3120000E143025448525F4D4904
:102520004400000000000000000000C2E5120000AE
:10253000FA43025448525F445A0000000000000071
:102540000000000039E7120000C84201464C544D1B
:102550004F444531000000000000000000C8E912AF
:102560000000000001464C544D4F4445320000002D
:10257000000000000000C9EA120000000001464C03
:10258000544D4F444533000000000000000000CAD5
:10259000EB120000000001464C544D4F44453400FE
:1025A0000000000000000000CBEC12000000000161
:1025B000464C544D4F4445350000000000000000DB
:1025C00000CCED120000000001464C544D4F444534
:1025D00036000000000000000000CDEE12000000F8
:1025E000000153494D504C45000000000000000020
:1025F000000000CEEF1200000000034C4F475F4286
:1026000049544D41534B0000000000003CF01200C3
:10261000805F4401455343000000000000000000BB
:102620000000000000BAF412000000000154554EF2
:102630004500000000000000000000000000BBF5A5
:1026400012000000000254554E455F4C4F570000E9
:1026500000000000000000BDF8120000000002545D
:10266000554E455F48494748000000000000000003
:10267000BCF61200007A44014652414D450000006C
:1026800000000000000000000095FA120000803FEA
:10269000014348375F4F5054000000000000000025
:1026A000000098FB1200000000014348385F4F50C3
:1026B00054000000000000000000001FFC12000099
:1026C00000000141524D494E475F434845434B008E
:1026D0000000000020FD120000803F02414E474CE8
:1026E000455F4D41580000000000000000225015D9
:1026F00000A08C450152435F4645454C5F52500057
:1027000000000000000028CD120000C8420250481E
:102710004C445F4252414B455F5241544500002EAC
:10272000CE12000000410250484C445F4252414BDF
:10273000455F414E474C45002FD01200803B45017C
:102740004C414E445F5245504F534954494F4E00FF
:102750000034FE120000803F04454B465F4348456D
:10276000434B5F5448524553480036FF12CDCC4C82
:102770003F0444434D5F434845434B5F54485245F3
:102780005348003B0313CDCC4C3F085243315F000C
:10279000000000000000000000000000AA0713FE77
:1027A000500000085243325F0000000000000000AB
:1027B0000000000000AB2413FE5000000852433319
:1027C0005F00000000000000000000000000AC41BD
:1027D00013FE500000085243345F00000000000068
:1027E00000000000000000AD5E13FE500000085223
:1027F00043355F0000000000000000000000000002
:10280000AE7B1394510000085243365F0000000075
:10281000000000000000000000AF99139451000078
:10282000085243375F000000000000000000000075
:102830000000B0B71394510000085243385F000005
:102840000000000000000000000000B1D51394510A
:10285000000008524331305F00000000000000001B
:1028600000000000B2F313945100000852433131CC
:102870005F000000000000000000000000B3111421
:10288000945100000252435F5350454544000000FC
:10289000000000000000C02F140000F54304414375
:1028A000524F5F52505F500000000000000000DDFA
:1028B000311400009040044143524F5F5941575F2B
:1028C0005000000000000000F435140000904004A7
:1028D0004143524F5F42414C5F524F4C4C0000000D
:1028E00000F239140000803F044143524F5F4241DF
:1028F0004C5F5049544348000000F33D14000080F1
:102900003F014143524F5F545241494E45520000EE
:102910000000001B411400000040044143524F5F7F
:102920004558504F00000000000000003842149A43
:1029300099993E08524154455F524C4C5F0000004B
:102940000000000000DF4614D72F00000852415459
:10295000455F5049545F0000000000000000E06443
:1029600014D72F000008524154455F5941575F006A
:1029700000000000000000E18214D72F0000084C86
:102980004F495445525F4C41545F00000000000025
:10299000E7A014D72F0000084C4F495445525F4C14
:1029A0004F4E5F000000000000E8BE14D72F00006B
:1029B000085448525F524154455F00000000000037
:1029C0000000ECDC14A52F0000085448525F41437E
:1029D00043454C5F00000000000000F1E014D72FD9
:1029E0000000084F465F524C4C5F000000000000A2
:1029F00000000000EDFE14D72F0000084F465F5086
:102A000049545F00000000000000000000EE1C15AB
:102A1000D72F0000085354425F524C4C5F00000017
:102A2000000000000000E23E15A52F0000085354EE
:102A3000425F5049545F000000000000000000E3C6
:102A40004215A52F0000085354425F5941575F00BB
:102A50000000000000000000E44615A52F0000085B
:102A60005448525F414C545F0000000000000000D9
:102A700000EB4A15A52F000008484C445F4C415418
:102A80005F000000000000000000E53A15A52F00DF
:102A9000000843414D5F00000000000000000000FE
:102AA000000000A50007AF3600000852454C415910
:102AB0005F00000000000000000000000D2A0791E8
:102AC0004D000008434F4D504153535F000000003C
:102AD00000000000009354106537000008494E5371
:102AE0005F0000000000000000000000000003EE96
:102AF0000F8E47000008494E41565F00000000005D
:102B00000000000000000064AB09DF45000008572A
:102B1000504E41565F000000000000000000000021
:102B20006570079F30000008434952434C455F00E1
:102B30000000000000000000006839075430000069
:102B4000084154435F000000000000000000000046
:102B50000000662C09152E000008504F53434F4EBD
:102B60005F00000000000000000000674908C42E5C
:102B70000000085352305F00000000000000000019
:102B8000000000006E380C1B2D0000085352315F0E
:102B9000000000000000000000000000006F0F0DAA
:102BA0001B2D000008414852535F00000000000048
:102BB0000000000000009F280E80310000084D4EEC
:102BC000545F00000000000000000000000000A6AC
:102BD0009806DF49000008424154545F000000009D
:102BE000000000000000000024DE0A9C3500000800
:102BF0004252445F0000000000000000000000009E
:102C0000000F110C9636000008474E445F0000008C
:102C1000000000000000000000000B5411703300A1
:102C200000084750535F0000000000000000000053
:102C300000000010F911C740000008534348454404
:102C40005F00000000000000000000000C8E122455
:102C50004E00000846454E43455F0000000000005E
:102C60000000000000456806F62E0000084750539B
:102C7000474C495443485F0000000000000046D91B
:102C80001112410000084241524F474C5443485FE3
:102C900000000000000000473C11D4330000084D44
:102CA0004F545F0000000000000000000000000022
:102CB0005A5D0B5A4900000852434D41505F0000D5
:102CC000000000000000000000C7120C144D0000BE
:102CD000084D49535F0000000000000000000000A4
:102CE00000002AE60DE448000008524E47464E44D4
:102CF0000000000000000000000000351C0C014C2A
:102D000000000000000000000000000000000000C3
:102D100000000000000000000000000200524157C7
:102D20005F53454E530000000000000000006600A5
:102D30000000000002014558545F53544154000004
:102D400000000000000000680000000000020252C5
:102D5000435F4348414E00000000000000000000B7
:102D60006A000000000002035241575F4354524C76
:102D70000000000000000000006C000000000002E5
:102D800004504F534954494F4E00000000000000CA
:102D900000006E0000000000020545585452413109
:102DA00000000000000000000000007000000000B3
:102DB0000002064558545241320000000000000055
:102DC0000000000072000000000002074558545245
:102DD000413300000000000000000000007400000B
:102DE0000000000208504152414D53000000000015
:102DF00000000000000076000000000000FF00005E
:102E000000000000000000000000000000000000C2
:102E100000000000000400524154455F52505F4DD5
:102E20004158000000000000260000A08C4604016C
:102E3000524154455F595F4D415800000000000069
:102E4000002A0000A00C460402534C45575F59412C
:102E5000570000000000000000002E0000007A442F
:102E60000403414343454C5F52505F4D41580000BD
:102E70000000003200000000000404414343454CC0
:102E80005F595F4D4158000000000000360000000F
:102E900000000105524154455F46465F454E4142A0
:102EA00000000000003A000000000000FF000000E9
:102EB0000000000000000000000000000000000012
:102EC0000000000004005448525F484F564552002D
:102ED0000000000000000017000000E14300FF00B8
:102EE00000000000000000000000000000000000E2
:102EF0000000000000000100454E41424C4500002A
:102F000000000000000000000002000000000001BE
:102F1000015459504500000000000000000000006E
:102F200000000300000040400102414354494F4E5D
:102F3000000000000000000000000004000000800D
:102F40003F0403414C545F4D415800000000000015
:102F50000000000005000000C8420404524144493A
:102F600055530000000000000000000000090000B0
:102F700000964304054D415247494E0000000000B1
:102F80000000000000000D000000004000FF0000F5
:102F90000000000000000000000000000000000031
:102FA00000000000000400500000000000000000CD
:102FB000000000000000000000000000000000FF12
:102FC0000000000000000000000000000000000001
:102FD000000000000000000400500000000000009D
:102FE00000000000000000000000000000000000E1
:102FF0000401490000000000000000000000000083
:103000000000000400000000000402440000000072
:1030100000000000000000000000000008000000A8
:1030200000000203494D415800000000000000006C
:1030300000000000000C000000000000FF00000085
:103040000000000000000000000000000000000080
:1030500000000000040052414449555300000000A4
:1030600000000000000000070000007A4404015244
:103070004154450000000000000000000000000076
:103080000B000000A04100FF000000000000000055
:10309000000000000000000000000000000000042C
:1030A00000535045454400000000000000000000AF
:1030B00000000F000000FA430401524144495553F7
:1030C00000000000000000000000001B000000489D
:1030D00043040253504545445F5550000000000032
:1030E00000000000130000007A43040353504545DC
:1030F000445F444E00000000000000000017000084
:1031000000164304044C4F49545F53504545440056
:1031100000000000000007000000FA4304054143DE
:1031200043454C0000000000000000000000001FAC
:10313000000000C8420406414343454C5F5A00006A
:10314000000000000000000023000000C842040747
:103150004C4F49545F4A45524B00000000000000AC
:10316000000B0000007A4400FF0000000000000097
:10317000000000000000000000000000000000004F
:1031800004024750535F4741494E000000000000D1
:1031900000000022000000803F01034750535F55AC
:1031A0005345000000000000000000002C0000005B
:1031B000803F04045941575F5000000000000000A8
:1031C00000000000001A00CDCC4C3E040552505FB8
:1031D00050000000000000000000000000001E0081
:1031E000CDCC4C3E010657494E445F4D415800003E
:1031F000000000000000002D000000000005085441
:1032000052494D00000000000000000000000000D6
:1032100041000000000001094F5249454E544154FD
:10322000494F4E0000000000002E00000000000486
:103230000A434F4D505F42455441000000000000DA
:1032400000002800CDCCCC3D010B4750535F4D49C9
:103250004E534154530000000000002F000000C0F6
:103260004000FF000000000000000000000000001F
:103270000000000000000000000050414E49433AA9
:103280002041505F4261726F3A3A72656164207505
:103290006E7375636365737366756C20666F7220F9
:1032A0006D6F7265207468616E203530306D7320EB
:1032B000696E2041505F4261726F3A3A63616C6996
:1032C0006272617465205B335D0D0A0050414E49A6
:1032D000433A2041505F4261726F3A3A72656164CD
:1032E00020756E7375636365737366756C20666FA6
:1032F00072206D6F7265207468616E203530306D9C
:103300007320696E2041505F4261726F3A3A636187
:103310006C696272617465205B325D0D0A00504118
:103320004E49433A2041505F4261726F3A3A7265AA
:10333000616420756E7375636365737366756C2065
:10334000666F72206D6F7265207468616E20353013
:10335000306D7320696E2041505F4261726F3A3A5E
:1033600063616C696272617465205B315D0D0A0096
:1033700004024142535F5052455353000000000085
:103380000000000C0000000000040354454D5000F4
:103390000000000000000000000000000800000025
:1033A00000000104414C545F4F4646534554000011
:1033B000000000000010000000000000FF000000FE
:1033C00000000000000000000000000000000000FD
:1033D000000000000100454E41424C450000000045
:1033E0000000000000000003000000803F040144D2
:1033F00049535400000000000000000000000000DD
:1034000004000000FA430402414343454C0000001D
:1034100000000000000000000008000080BB440025
:10342000FF0000000000000000000000000000009D
:10343000000000000000000050414E49433A204186
:10344000505F4261726F5F4D533536313120746F7A
:103450006F6B206D6F7265207468616E2031303043
:10346000306D7320746F20696E697469616C697A5C
:10347000650050414E49433A2041505F4261726FAE
:103480005F4D53353631313A206661696C65642091
:10349000746F2074616B652073657269616C207351
:1034A000656D6170686F726520666F7220696E6904
:1034B000740050414E49433A2041505F4261726F5F
:1034C0005F4D53353631313A204E554C4C207365A3
:1034D0007269616C206472697665720050414E4970
:1034E000433A206661696C656420746F2074616B77
:1034F00065205F7370695F73656D203130302074B3
:10350000696D657320696E206120726F772C206968
:103510006E2041505F4261726F5F4D5335363131DD
:103520003A3A5F7570646174650050414E49433AA0
:103530002041505F4261726F5F4D5335363131200B
:10354000646964206E6F74206765742076616C69AD
:1035500064205350492073656D617068726F6521F6
:103560000050414E49433A2041505F4261726F5FC3
:103570004D533536313120646964206E6F74206795
:1035800065742076616C69642053504920646576C7
:1035900069636520647269766572210001004D4F90
:1035A0004E49544F5200000000000000000000008F
:1035B00000000000000101564F4C545F50494E007E
:1035C0000000000000000000010000005041010266
:1035D000435552525F50494E000000000000000069
:1035E000000200000040410403564F4C545F4D550B
:1035F0004C54000000000000000003009A99214193
:103600000404414D505F504552564F4C5400000049
:103610000000000700000088410405414D505F4F45
:103620004646534554000000000000000B00000017
:103630000000030643415041434954590000000033
:1036400000000000000F0000404E450107564F4C9F
:1036500054325F50494E000000000000000013008B
:10366000000080BF0408564F4C54325F4D554C54F7
:103670000000000000000014000000803F00FF0078
:10368000000000000000000000000000000000003A
:1036900000000000000000FF00000000000000002B
:1036A0000000000000000000000000000000000119
:1036B0000054524947475F545950450000000000EC
:1036C000000000000000000001014455524154492F
:1036D0004F4E00000000000000000001000000202C
:1036E000410202534552564F5F4F4E00000000000A
:1036F0000000000002000080A2440203534552561D
:103700004F5F4F464600000000000000000400002C
:10371000808944040454524947475F444953540044
:1037200000000000000009000000000000FF000091
:103730000000000000000000000000000000000089
:1037400000000000004661696C656420746F2067AA
:10375000657420484D43353834332073656D61708E
:10376000686F72650005014F4653000000000000BD
:10377000000000000000000017000000000004022C
:10378000444543000000000000000000000000006D
:103790000023000000000001034C4541524E000090
:1037A0000000000000000000000008000000803F52
:1037B0000104555345000000000000000000000017
:1037C00000000027000000803F01054155544F4490
:1037D0004543000000000000000000002800000039
:1037E000803F01064D4F544354000000000000008C
:1037F0000000000000A4000000000005074D4F5429
:103800000000000000000000000000000000A50013
:103810000000000001084F5249454E5400000000CE
:103820000000000000000016000000000001094533
:10383000585445524E414C0000000000000000006A
:1038400029000000000000FF000000000000000050
:1038500000000000000000000000000000000080E8
:10386000114011407132733433321312113211127C
:10387000933413145352310021030406080B2D0A0C
:10388000090705040241C011C051125354731211AB
:1038900012515273147332310021020405060708D5
:1038A0000908060706240302010200012001201175
:1038B000C00111003132137413143312F112D312F8
:1038C000510001022325060746442342210001E05E
:1038D000A0313213B43311121100112011005233F0
:1038E00012133211200122248504230402034241D1
:1038F0000001E0A051121413151315341332514076
:103900000120115213323100012223040504050461
:1039100023010382612001E0118011321354151438
:1039200033323140210201003172314102234423FC
:1039300002012201220102614001A01180511214F2
:1039400013341514331231400102010302012052D5
:10395000111220212243042241022102A10001E090
:10396000201140515374133211402102030203020B
:1039700001001112113200114122232221004102C3
:10398000A1800160116011001132337413121140D3
:1039900001620302032131121112114001020102DE
:1039A000030201000100E121E0A011201211733493
:1039B0003331200162036240121112110011010023
:1039C000010201220001200100E1C001001180116B
:1039D0000012111312141334522001E2022120317B
:1039E000121100110001002102010001402100021A
:1039F000410001E06011401112111312141314134D
:103A000032110021220342010221000100110012A3
:103A100011001120010041600100C100014011208E
:103A2000016011405112131213143312310001427C
:103A300003220102210001401100310011000100A8
:103A4000010001A0E10001A0018011203152931278
:103A5000110021C22100214031001120110001007C
:103A600001E0E16001E011001172731231002142A6
:103A700003010201022021401100112011600140C8
:103A80001160010001022102000120014001A0514A
:103A90003213125332112001020182210021000150
:103AA00000110031E000110011602100010201024B
:103AB00001010021200100016011001152131214B4
:103AC0001352110041820102000100214011001136
:103AD0000011A0110031001120812201010002011A
:103AE000002100016011005213121314133231012E
:103AF00000020122014201002100010001112011F8
:103B00000011201140710011400102210201020147
:103B100000210221000100010011001211123312D4
:103B2000341332112001020142012201004100013F
:103B300060112011001100110051123120610201A9
:103B4000220200020102812011001211733413328B
:103B50001100410201820100610001801100110089
:103B6000913231402142010202006261401152143F
:103B7000135433310041820122000102004100014F
:103B800060911211525120012201030102020082B0
:103B900061005133541514333100210201220342D4
:103BA0004102A1803192133231004122030201030C
:103BB000002203220102014011123395333101002A
:103BC000220103420322212201026100011100119E
:103BD0005213125312310041220322030023020325
:103BE0000201022120321314161517161533112065
:103BF000016203020302032201A241401112531485
:103C00001314133211010002010203020302020025
:103C1000022302032221203214163718171513121B
:103C200011002122030243024301030203822120E7
:103C300011121314153415143211000162230203FA
:103C40000043020342012012131518193A171513E5
:103C50001100210203026304E302030203020102D2
:103C60004012131415171516341220212243020393
:103C700000A3220100111215181C1E1D1916131184
:103C80000002010302030423040324030443042366
:103C900004030203422011121415171836151331AC
:103CA00021020302230203241E191512100E0C0B0D
:103CB0000A0909090808080706060504040403049C
:103CC000040400000000000000000000272621235B
:103CD000252325242722292A2A1C27282B3332276B
:103CE00025222C3331303700000000000000000096
:103CF0000000000001FFFFE000000000000001FFE5
:103D0000FFF000000000000001FFFFF800000000CD
:103D1000000001FFFFFE00000000000003FFFFFFA6
:103D200000000000000003FFFFFFF00000000000A3
:103D30000FFFFFFFFE00000003FFFFFC000007FC79
:103D400000007FFFFFFC000000000000001FFFFEDE
:103D5000000000000096918C87827D78736E696404
:103D60005F5A55504B46413C37322D28231E1914BB
:103D70000F0A050004090E13181D22272C31363BAB
:103D800040454A4F54595E63686D72777C81868BDB
:103D900090959A9FA4A9AEB3AFAAA5A09B968F8930
:103DA000837E78736E69645F5A55504B47423E3943
:103DB00035302C27231F1B16120E09050103070B94
:103DC0001014191D22262B2F34393D42474C5156D1
:103DD0005B60656B70757B80868C92979DA3A9AFA5
:103DE000B2ACA6A09A948F827C76706B65605C57AB
:103DF000524E4A46413D3936322E2A26221F1B1783
:103E000013100C08040102060A0E12161A1E2226AE
:103E10002B2F33383D41464B4F54595E64696F74C4
:103E20007A80878D949BA2AAB1AEA69F9790898233
:103E30006F68635E5955514D4946423F3C383532B3
:103E40002E2B2824211E1A1714100D0A0603000316
:103E500006090D1014181C2024282C3034393D413B
:103E6000464A4F54585D62676D737980878F98A278
:103E7000ACB0A59A90867D766F55514D4A47444126
:103E80003F3C3A383533312E2B292623201D1A1773
:103E900013100D0A070401010306090D1013171A68
:103EA0001E22262A2E32363A3E42464A4E53575B4F
:103EB0005F64696E757C85909FB2A08D7D70676030
:103EC0005A553E3C3A393736343332302F2E2C2A6D
:103ED000292724221F1C191613100D0A070402009B
:103EE0000305080A0D1013161A1D2125292D313539
:103EF000383C4043464A4D505356595B5E616569B4
:103F00006F826D544D4A474442403E2E2E2D2C2C3C
:103F10002B2A2A2929282726252423211F1C1A1762
:103F200014100D0A07040101030507090C0E1013F4
:103F3000161A1D2124282C3033373A3D404244477D
:103F4000484A4A4B4A48443D3019021621282B2D35
:103F50002E2F2E2E06090C0F121517191B1C1B18BD
:103F600011040E2231383C3C3C3A3835322F2B2894
:103F700024201C1915110D09050102060A0E111540
:103F8000181C1F222527292A2B2B29262119110825
:103F90000004080A0A0A0807040200030616181A91
:103FA0001C1E20211F1712516063625F5D5956521B
:103FB0004E4A46423E3935312C2824201B17130E19
:103FC0000A060102060A0F13171B1F23262A2D318A
:103FD0003437393C3D3F3F3E3D39352F28211C17B2
:103FE000151313131416A8ADB2B0ABA6A19C9792EB
:103FF0008D88837E79746F6A65605B56514C474249
:104000003D38332E29241F1A15100B060103080D05
:1040100012171C21262B30353A3F44494E53585D28
:1040200062676C71767B80858A8F94999EA3A820A5
:104030004E4D4541200020534952462000204D540A
:104040004B2000204D544B313920002075626C6F9D
:10405000782000B56206010300010601124F2450CA
:104060005542582C34312C312C303030332C3030F8
:1040700030312C33383430302C302A32360D0A248B
:104080005047434D442C31362C302C302C302C30C2
:104090002C302A36410D0A24505352463130302CF0
:1040A000302C33383430302C382C312C302A3343F8
:1040B0000D0A00C01200000096000000C2010000BE
:1040C000E100008025000001005459504500000027
:1040D0000000000000000000000002000000803F1F
:1040E00001024E415646494C544552000000000022
:1040F00000000003000000004100FF00000000007D
:1041000000000000000000000000000000000000AF
:1041100000000100454E41424C45000000000000F7
:10412000000000000003000000803F0401524144F1
:10413000495553000000000000000000000004008A
:10414000000048430402414343454C000000000086
:1041500000000000000000080000007A4400FF009A
:10416000000000000000000000000000000000004F
:1041700000000000000024504D544B3232302C32ED
:1041800030302A32430D0A24504D544B3331332CF6
:10419000312A32450D0A24504D544B3330312C32E4
:1041A0002A32450D0A24504D544B3339372C302ACE
:1041B00032330D0A00475056544700475047474195
:1041C000004750524D430024505352463130332C57
:1041D000302C302C312C312A32350D0A24505352D8
:1041E000463130332C312C302C302C312A32350DE5
:1041F0000A24505352463130332C322C302C302C80
:10420000312A32360D0A24505352463130332C3382
:104210002C302C302C312A32370D0A245053524680
:104220003130332C342C302C312C312A32300D0AE1
:1042300024505352463130332C352C302C312C3114
:104240002A32300D0A24505352463130332C362C4A
:10425000302C302C312A32320D0A24505352463140
:1042600030332C382C302C302C312A32430D0A2498
:10427000505352463135312C312A33460D0A2450E1
:104280005352463130362C32312A30460D0A2450F2
:104290004D544B3331342C302C302C312C312C30CC
:1042A0002C302C302C302C302C302C302C302C302E
:1042B0002C302C302C302C302A32380D0A24504D22
:1042C000544B3333302C302A32450D0A24504D5490
:1042D0004B3331332C312A32450D0A24504D544B87
:1042E0003330312C322A32450D0A24505542582C95
:1042F00034302C6767612C302C312C302C302C3032
:104300002C302A37420D0A24505542582C34302C78
:104310007674672C302C312C302C302C302C302AF9
:1043200037460D0A24505542582C34302C726D6398
:104330002C302C302C302C302C302C302A36370DB1
:104340000A00A0A20008A60200000000000000A8C9
:10435000B0B3A0A20008A60029010000000000D010
:10436000B0B32C76D888674F0823C1DFAE59B1B7F8
:1043700096E5E453C63A51997696E6C28426898C2E
:104380009B62407C6FFCBC9C9F40BAA56FA59005CA
:104390005A2A5C936B6C676DC11BE0E40D47F520F6
:1043A000E6B5D0ED902E009435770080841E000095
:1043B000204E000000C833333333986E128341EF30
:1043C0008D21893BE655CFFEE6DBD1844B38F77C67
:1043D0001D90A4BBE4243284725E8100C9F1ECA17B
:1043E000E53DDCDFE1E3E6E8EBEDEFF2F4F7F9FCC5
:1043F000FE000305080A0C0F111416181B1D2022BD
:1044000024276E616E00696E66004572726F723AA3
:104410002041505F48414C5F4156523A3A41565212
:10442000416E616C6F67496E206F7574206F6620F6
:104430006368616E6E656C730D0A00474F494E47A5
:1044400020444F574E20464F522041205245424F64
:104450004F540D0A0050414E49433A20736368653A
:1044600064756C65723A3A73797374656D5F696EE1
:10447000697469616C697A65642063616C6C6564F8
:104480006D6F7265207468616E206F6E6365005099
:10449000414E49433A2041565253656D6170686FF1
:1044A00072653A3A74616B65207573656420667253
:1044B0006F6D20696E736964652074696D65722023
:1044C00070726F636573730050414E49433A2053D5
:1044D00050493020777269746520636F6C6C697322
:1044E000696F6E0050414E49433A20535049302085
:1044F0007472616E7366657220636F6C6C69736948
:104500006F6E00010210202008081020401020408B
:104510008002010201080402010102040810204087
:1045200080804020100804020180040201804020A5
:1045300010080402010804020101020408102040CE
:10454000800102040810204080400505050507058C
:1045500008080808020202020A0A080804040404FF
:10456000010101010101010103030303030303032B
:10457000040707070C0C0C0C0C0C0C0C02020202BA
:1045800006060606060606060B0B0B0B0B0B0B0BA3
:1045900005000020002300260029002C002F0032F7
:1045A00000000100000301060109010000220025AE
:1045B0000028002B002E003100340002010000050D
:1045C0000108010B0100002100240027002A002D12
:1045D000003000330001010000040107010A01045A
:1045E0000154435F58590000000000000000000023
:1045F0000000130000002040040254435F5A0000F2
:10460000000000000000000000000017000000A0F3
:104610004000FF000000000000000000000000005B
:10462000000000000000000000006779726F5B2549
:10463000755D20646964206E6F7420636F6E7665AB
:104640007267653A20646966663D2566206470730A
:104650000A002A00496E6974204779726F002000B1
:104660002A00496E697420416363656C0043616C84
:104670006962726174696F6E204641494C45440A13
:104680000043616C6962726174696F6E2073756357
:104690006365737366756C0A005363616C696E675A
:1046A0005B25755D3A20252E326620252E32662048
:1046B000252E32660A004F6666736574735B257536
:1046C0005D3A20252E326620252E326620252E3298
:1046D000660A00506C6163652076656869636C6585
:1046E00020255320616E6420707265737320616EA3
:1046F00079206B65792E0A006F6E206974732042F1
:1047000041434B006E6F7365205550006E6F7365AB
:1047100020444F574E006F6E2069747320524947F2
:1047200048542073696465006F6E20697473204C6F
:104730004546542073696465006C6576656C004E6F
:104740006F20494E53206261636B656E6473206114
:104750007661696C61626C6500546F6F206D616E8B
:104760007920494E53206261636B656E6473005417
:104770006F6F206D616E7920616363656C730054A7
:104780006F6F206D616E79206779726F7300020020
:1047900050524F445543545F49440000000000000C
:1047A000001F000000000005014143435343414CFA
:1047B00000000000000000000000210000000000D8
:1047C00005024143434F46465300000000000000ED
:1047D0000000002D000000000005034759524F461D
:1047E00046530000000000000000000039000000F7
:1047F000000001044D5055364B5F46494C5445521C
:10480000000000000045000000000000FF00000064
:104810000000000000000000000000000000000098
:10482000000000004661696C656420746F20626F4F
:104830006F74204D50553630303020352074696DFE
:104840006573004D5055363030303A20556E6162F8
:104850006C6520746F206765742073656D61706886
:104860006F72650056616C75657320646F65736E59
:104870002774206D617463683B2077726974746576
:104880006E3A20253032783B20726561643A2025EB
:1048900030327820006661696C656420746F206234
:1048A0006F6F74204D50553630303020352074698C
:1048B0006D65730054696D6564206F757420776150
:1048C0006974696E6720666F7220757365722072F5
:1048D0006573706F6E736500256C642E2530376CC0
:1048E00064002D000200544F54414C0000000000B1
:1048F000000000000000000500000000000101525F
:1049000045535441525400000000000000000000D4
:1049100007000000000000FF000000000000000091
:104920000000000000000000000000000000004146
:10493000505F4D6F746F72733A206661696C656485
:1049400020746F20637265617465207468726F747F
:10495000746C65206375727665000101544352568C
:104960005F454E41424C450000000000002E000013
:1049700000803F0102544352565F4D494450435416
:104980000000000000002F000000504201035443CB
:1049900052565F4D41585043540000000000003013
:1049A000000000BA4202055350494E5F41524D4546
:1049B0004400000000000000310000008C4200FFB5
:1049C00000000000000000000000000000000000E7
:1049D00000000000000000000102030405060701BA
:1049E000004D4F44450000000000000000000000A2
:1049F00000003100000000000501524554524143BF
:104A00005400000000000000000000420000000010
:104A10000005024E45555452414C00000000000074
:104A2000000000004E00000000000503434F4E54FC
:104A3000524F4C000000000000000000005A00002F
:104A40000000000104535441425F524F4C4C00009F
:104A50000000000000002E0000000000010553547B
:104A600041425F54494C5400000000000000002FF8
:104A700000000000000106535441425F50414E00C7
:104A800000000000000000003000000000000107EE
:104A900052435F494E5F524F4C4C000000000000F3
:104AA000003200000000000208414E474D494E5FB1
:104AB000524F4C00000000000000350000A08CC5E3
:104AC0000209414E474D41585F524F4C00000000D3
:104AD000000000370000A08C45010A52435F494E98
:104AE0005F54494C540000000000000033000000F7
:104AF0000000020B414E474D494E5F54494C0000A7
:104B00000000000000390000A08CC5020C414E4797
:104B10004D41585F54494C000000000000003B002C
:104B200000A08C45010D52435F494E5F50414E003D
:104B300000000000000000340000000000020E41F0
:104B40004E474D494E5F50414E00000000000000AE
:104B50003D0000A08CC5020F414E474D41585F50AB
:104B6000414E000000000000003F0000A08C450105
:104B7000104A535449434B5F535044000000000017
:104B8000000041000000000000FF000000000000E5
:104B90000000000000000000000000000000000015
:104BA0000042616420636F6E76657273696F6E2078
:104BB0007479706520272553270A00556E6B6E6F38
:104BC000776E20636F6E76657273696F6E2027252E
:104BD00053270A0025733A2025660A0025733A20D8
:104BE000256C640A0025733A2025640A0025733A6F
:104BF0002025640A00454550524F4D2066756C6C67
:104C00000001005F54595045000000000000000002
:104C10000000000000000000000001015F50494E4C
:104C20000000000000000000000000000001000083
:104C30000080BF04025F5343414C494E47000000CF
:104C400000000000000006000000404004035F4F29
:104C50004646534554000000000000000000000AD2
:104C6000000000000001045F46554E4354494F4E7A
:104C700000000000000000000E000000000002051F
:104C80005F4D494E5F434D000000000000000000F2
:104C9000000F000000A04102065F4D41585F434DE8
:104CA00000000000000000000000110000002F4480
:104CB00001075F53544F505F50494E000000000001
:104CC0000000000300000080BF02085F53455454F9
:104CD0004C455F4D53000000000000000400000040
:104CE000000001095F524D45545249430000000045
:104CF000000000000002000000803F00FF000000F4
:104D000000000000000000000000000000000000A3
:104D1000000000000100524F4C4C00000000000059
:104D20000000000000000000000000803F01015072
:104D3000495443480000000000000000000000004B
:104D400001000000004001025448524F54544C45A9
:104D500000000000000000000003000000404001CF
:104D6000035941570000000000000000000000004F
:104D7000000002000000804000FF00000000000072
:104D80000000000000000000000000000000000023
:104D900000010050494E000000000000000000002B
:104DA00000000000000000005041010150494E3257
:104DB00000000000000000000000000000010000F2
:104DC0000080BF00FF0000000000000000000000A5
:104DD0000000000000000000000000005363686550
:104DE00064756C6572206F76657272756E20746181
:104DF000736B5B25755D202825752F2575290A00A5
:104E00005363686564756C657220736C6970207497
:104E100061736B5B25755D202825752F25752F2502
:104E200075290A0001004445425547000000000072
:104E30000000000000000000000000000000FF0073
:104E40000000000000000000000000000000000062
:104E500000000000000050414E49433A2044617474
:104E600061466C6173682053504944657669636597
:104E70004472697665722073656D6170686F7265E2
:104E8000206973206E756C6C0050414E49433A2086
:104E900044617461466C617368205350494465767F
:104EA000696365447269766572206E6F7420666FFF
:104EB000756E64004C6F672025752C2020202073B0
:104EC000746172742025752C202020656E64202565
:104ED000750A000A2575206C6F67730A000A4E6F09
:104EE000206C6F67730A0A004E756D5061676573B9
:104EF0003A20257520205061676553697A653A200C
:104F000025750A004D616E75666163747572657210
:104F10003A20307825303278202020446576696345
:104F2000653A203078253034780A004E6F2064616D
:104F30007461666C61736820696E73657274656410
:104F40000025750A0025752C09004446207061670C
:104F5000652C206C6F672066696C6520232C206CA3
:104F60006F6720706167653A2025752C0900464DF2
:104F7000542C2025752C2025752C2025532C2025DC
:104F8000532C2025530A002C200025730025730084
:104F9000257300252E326600252E326600252E321E
:104FA0006600252E326600256600256C7500256C8E
:104FB00064002575002564002575002564002553CF
:104FC0002C2000554E4B4E2C2025750A00666C692E
:104FD00067687420706C616E2072656365697665C0
:104FE0006400666C6967687420706C616E2075700F
:104FF000646174652072656A656374656400327CFF
:105000008900EDD968770000005900000000000019
:105010000000D69FDCA81817AA90437327F6B9683A
:10502000EDF4DED409FEE61C1C84DDE80B9929278B
:10503000000000000F03000000000099B733527613
:10504000941500F37C000026149E988F0000006ADF
:1050500031161D0CF1E900E7B73F360000000000F3
:105060000000AF669ED0385DD36C20B95400007C40
:1050700077044C80387486EDCBFA57CBDC19E2000C
:105080001DDF5506E5CB0100000000000000000018
:10509000002A310086DBD0BC5416131586004E441E
:1050A000BD7F9A15159001EA49B51653A78AEAF013
:1050B0002FBD34AE00000000000000000000000022
:1050C00000000000000000000000000000000000E0
:1050D00000000000000000000000000000000000D0
:1050E00000000000000000000000000000000000C0
:1050F00000000000000008CC31AA2C532E00020052
:105100004D494E00000000000000000000000000BB
:10511000000A000080894402015452494D000000F9
:10512000000000000000000000000C000080BB44F4
:1051300002024D4158000000000000000000000085
:105140000000000E000080ED4401035245560000AF
:10515000000000000000000000000000100000003F
:10516000803F0205445A00000000000000000000DB
:10517000000000000011000000000000FF0000001F
:10518000000000000000000000000000000000001F
:105190000000000008000000000000000000000007
:1051A000000000000000000000FE50000001014669
:1051B000554E4354494F4E000000000000000000CF
:1051C0001D000000000000FF0000000000000000C3
:1051D00000000000000000000000000000000000CF
:1051E00000000000060300000676090200760F5A50
:1051F000000100D00F300000000000000503000097
:1052000005CA090200CA0E96000100600FA0000046
:105210007AA5E607D0056006CC059805840400054C
:105220002004480426A911241FBECFEFD1E2DEBF1F
:10523000CDBF00E00CBF15E0A0E0B2E0E6E7F1ED85
:1052400003E00BBF02C007900D92AA38B107D9F74F
:1052500018E1AAE8B5E001C01D92A131B107E1F75C
:1052600012E5C4E2D2E500E006C022970109FE0182
:105270000BBF0F9480E6C031D10780E00807A9F783
:105280000E942E970D94AAE80C9400000895E091D6
:105290005411F09155110084F185E02D84E591E1E0
:1052A00019950895A9E1B0E0E8E5F9E20D94EAE581
:1052B000962FE9E1BE016F5F7F4FDB01FE2F1D924C
:1052C000FA95E9F7F3EAF983F5E9FA83EB838C833E
:1052D0009D832E833F8348875987EA86FB860C8708
:1052E0001D87AE86BF86C88AD98A8FA198A5A9A531
:1052F000BAA58A8B9B8BAC8BBD8B8BA59CA5ADA5D2
:10530000BEA58E8B9F8BA88FB98FE0915A12F0911A
:105310005B120084F185E02D49E150E08AE592E1DD
:1053200019956996EAE00D9406E6A6E0B0E0EBE98F
:10533000F9E20D94F2E5BE016F5F7F4F96E0FB014D
:1053400011929A95E9F793EA998395E99A8393E004
:105350009B838C838091E3129091E4129E838D83D2
:10536000E0915A12F0915B120084F185E02D46E045
:1053700050E08AE592E119952696E2E00D940EE65A
:10538000A5E0B0E0E6ECF9E20D94F2E5DE0111965D
:1053900095E0FD0111929A95E9F793EA998395E9D1
:1053A0009A8393E19B838C836D83E0915A12F091F1
:1053B0005B120084F185E02D45E050E0BD018AE5F7
:1053C00092E119952596E2E00D940EE6A0918E15D6
:1053D000B0918F15ED91FC9111970280F381E02D32
:1053E000CD011995089580918E1590918F15DC014E
:1053F000ED91FC910480F581E02D1995089580913F
:105400008E1590918F15DC01ED91FC910680F7814E
:10541000E02D199508958F929F92AF92BF92CF92EF
:10542000DF92EF92FF9280904F0690905006A090EE
:105430005106B090520620E030E0A901C501B40148
:105440000F94A0E0882309F482C0C0903F06D0905A
:105450004006E0904106F090420620E030E0A901CD
:10546000C701B6010F94A0E0882309F470C08092B0
:10547000461490924714A0924814B0924914809117
:105480004B0690914C06A0914D06B0914E0680932C
:105490004A1490934B14A0934C14B0934D148091E4
:1054A000470690914806A0914906B0914A0680931C
:1054B0004E1490934F14A0935014B09351148091B4
:1054C000430690914406A0914506B091460680930C
:1054D0003E1590933F15A0934015B0934115C0928F
:1054E0006414D0926514E0926614F092671480916F
:1054F0003B0690913C06A0913D06B0913E068093FC
:10550000681490936914A0936A14B0936B148091FB
:10551000370690913806A0913906B0913A068093EB
:105520006C1490936D14A0936E14B0936F148091CB
:10553000330690913406A0913506B09136068093DB
:10554000421590934315A0934415B0934515FF90D1
:10555000EF90DF90CF90BF90AF909F908F90089585
:105560008F929F92AF92BF92CF92DF92EF92FF9273
:1055700080904F0690905006A0905106B090520631
:1055800020E030E0A901C501B4010F94A0E0882318
:1055900009F483C0C0903F06D0904006E0904106D9
:1055A000F090420620E030E0A901C701B6010F9457
:1055B000A0E0882309F471C08092461490924714A9
:1055C000A0924814B09249142DEC3CEC4CEC5DE3F5
:1055D000C501B4010F946DE360934A1470934B14AA
:1055E00080934C1490934D148091470690914806F7
:1055F000A0914906B0914A0680934E1490934F149F
:10560000A0935014B0935114809143069091440696
:10561000A0914506B091460680933E1590933F15A4
:10562000A0934015B0934115C0926414D0926514B4
:10563000E0926614F09267142DEC3CEC4CEC5DE3C8
:10564000C701B6010F946DE36093681470936914F9
:1056500080936A1490936B1480913706909138066A
:10566000A0913906B0913A0680936C1490936D1412
:10567000A0936E14B0936F1480913306909134060A
:10568000A0913506B091360680934215909343154C
:10569000A0934415B093451503C062E08EE070DE20
:1056A000FF90EF90DF90CF90BF90AF909F908F9042
:1056B0000895A0E0B0E0EFE5FBE20D94E4E5EC0135
:1056C0008B0128813981FB0180819181121613069B
:1056D0001CF497FF07C010C02115310519F01816EA
:1056E000190654F0AC0197FF04C044275527481B06
:1056F000590B493057401CF0998388839BC0B901EE
:10570000882777FD8095982FE090CE12F090CF12E9
:10571000121613060CF046C00F9442E14B015C01D7
:105720002DEC3CEC4CE45DE30F946DE32B013C016C
:105730001E141F04ACF4B701882777FD8095982FBD
:105740000F9442E16B017C019B01AC01B201C301EA
:105750000F941DE318168CF026019E2D8F2D0FC07F
:1057600020E030E040E85FE30F941DE318162CF0D2
:10577000412C512C90E88FE302C0962D872D920189
:10578000492F582FC501B4010F94C2DF0F940FE1C8
:1057900079836883F80120813181621773070CF0E7
:1057A00047C045C00F9442E14B015C0190582DEC7D
:1057B0003CEC4CE45DE30F946DE32B013C011E14C3
:1057C0001F04ACF4B701882777FD8095982F0F94BC
:1057D00042E16B017C019B01AC01B201C3010F945A
:1057E0001DE318168CF026019E2D8F2D0FC020E092
:1057F00030E040E85FE30F941DE318162CF0412CD5
:10580000512C90E88FE302C0962D872D9201492FED
:10581000582FC501B4010F94C3DF0F940FE17983B2
:105820006883F80120813181261737070CF4B9010C
:1058300079836883CDB7DEB7E0E10D9400E6E9ED4A
:10584000F5E08081887F8560808382E390E090939B
:10585000F2058093F1051092DC051092DB05809132
:105860000806909109069093F6058093F505089532
:10587000E9EDF5E08081877C8862808382E390E0B7
:105880009093F4058093F3051092DE051092DD05E8
:1058900080910A0690910B069093F8058093F70586
:1058A00008958B3039F020F48350853028F402C0FD
:1058B000803111F481E0089580E00895823010F481
:1058C00081E0089580E008958091180C80FF18C051
:1058D0008091061290910712039794F08091DB114A
:1058E00081FD0EC080910A0C83FD0AC09091D40501
:1058F00090FD06C085FB882780F991E089270895EF
:1059000080E0089520E030E0FC01E20FF31F1282F6
:105910001382148215822C5F3F4F2C313105A1F781
:10592000FC01168E0895FC01968D81E0890F868F0B
:10593000DF0124E0929FA00DB11D112412964D931A
:105940005D936D937C931597873008F0168ECB018D
:10595000BA010895A7E1B0E0E0EBFCE20D94F0E5B8
:105960008E010F5F1F4F87E1D8011D928A95E9F7DD
:1059700083EA898385E98A8381E08B8380918E1510
:1059800090918F15DC01ED91FC910480F581E02D63
:1059900019956C837D838E839F8360916B097091D1
:1059A0006C0980916D0990916E090F940FE17987D0
:1059B00068878091360E9091370E9B878A87609119
:1059C0006F097091700980917109909172090F941B
:1059D0000FE17D876C8780913A0E90913B0E9F87F7
:1059E0008E87609173097091740980917509909107
:1059F00076090F9414E1798B688B80913E0E90911B
:105A00003F0E9B8B8A8B88E29EE00E943CED20E05B
:105A100030E048EC52E40F946DE30F9414E17D8B79
:105A20006C8B88E29EE00E9475ED20E030E048EC4F
:105A300052E40F946DE30F9414E17F8B6E8BE09131
:105A40005A12F0915B120084F185E02D47E150E09D
:105A5000B8018AE592E119956796E4E00D940CE6A9
:105A600088E996E00F949A9680E097E00D944B08B1
:105A70000895CF93DF93EC018091380C882329F0AF
:105A8000BE0188E39CE00F9429CE80910F0D8823FE
:105A900029F0BE018FE09DE00F9429CEDF91CF91D8
:105AA00008958CE190E0E5CF089580E090E0E1CFAB
:105AB00008958091380C882331F060E070E088E32D
:105AC0009CE00F9448D080910F0D882331F060E066
:105AD00070E08FE09DE00D9448D00895A0E0B0E024
